:020000040800F2
:1000000000040020B9020008BB020008BB0200087F
:10001000BB020008BB020008BB020008BB020008CC
:10002000BB020008BB020008BB020008C1020008B6
:10003000BB020008BB020008DF020008BB02000888
:10004000BB020008BB020008BB020008BB0200089C
:10005000BB020008BB02000861050008E1050008BA
:1000600051060008C106000831070008BB0200085D
:10007000BB020008BB020008BB020008BB0200086C
:10008000BB020008BB020008BB020008BB0200085C
:10009000BB020008BB020008BB020008A107000861
:1000A000BB020008BB020008BB020008BB0200083C
:1000B000D10B0008BB020008BB020008BB0200080D
:1000C000BB020008BB020008BB020008BB0200081C
:1000D000BB020008BB020008BB020008BB0200080C
:1000E00081090008BB020008BB020008BB0200082F
:1000F000BB020008BB020008BB020008BB020008EC
:10010000BB020008BB020008BB020008BB020008DB
:10011000BB020008BB020008BB020008BB020008CB
:10012000BB020008BB020008BB020008BB020008BB
:10013000BB020008BB020008BB020008BB020008AB
:10014000BB020008BB020008BB020008BB0200089B
:10015000BB020008BB020008BB020008BB0200088B
:10016000BB020008BB020008BB020008BB0200087B
:10017000BB020008BB020008BB020008BB0200086B
:10018000BB020008BB020008BB020008BB0200085B
:10019000BB020008BB020008BB020008BB0200084B
:1001A000BB020008BB020008BB020008BB0200083B
:1001B000BB020008BB020008BB020008BB0200082B
:1001C000BB020008BB020008BB020008BB0200081B
:1001D000BB020008BB020008BB020008BB0200080B
:1001E00072B6264880F30888254880F30988254898
:1001F00025490860022080F31488BFF36F8F00F058
:100200005FF900F085FD4FF0553020491B4A9142BF
:100210003CBF41F8040BFAE71D49194A91423CBF23
:1002200041F8040BFAE71B491B4A1C4B9A423EBF9C
:1002300051F8040B42F8040BF8E700201849194A5A
:1002400091423CBF41F8040BFAE700F051F900F08D
:100250003FF9154C154DAC4203DA54F8041B88479E
:10026000F9E700F045FF124C124DAC4203DA54F8A6
:10027000041B8847F9E700F033B9000000040020B0
:10028000000800200000000808ED00E00000002049
:1002900000040020D01600080008002000080020FC
:1002A00000080020F80A0020E0010008E001000832
:1002B000E0010008E001000892E700F000F8FEE726
:1002C000EFF309820C31EFF31183A1E8FC4F0C30FE
:1002D000B0E8FC4F82F3098883F311887047EFF38D
:1002E000118308B500F0D4FE002808BF08BDBDE8A2
:1002F00008400C31EFF30982A1E8FC4F0C30B0E864
:10030000FC4F82F3098883F311887047002383F33D
:1003100011882846A047002000F072FEFEE700008A
:10032000FEE700BF00000000000000000000000029
:10033000014B5B6883607047001000E00000000024
:100340000E4A0F4B81685B6810B4946802691B1BEE
:100350005B1AD218416902614268C46841F1000128
:100360009342026888BF436001349342C0E902347B
:10037000416110BC38BF0360704700BFD00A002045
:10038000001000E00000000000000000000000007D
:1003900010B4302383F311880B4B5C684942201A58
:1003A00008401968821A8A4207D3944205D35A60DA
:1003B000002383F3118810BC70470020002383F3CF
:1003C000118810BC704700BFC80A00200000000060
:1003D000064B5A684942101A08401968884203D3EC
:1003E000824201D35860704700207047C80A00203D
:1003F000302383F3118891F84C300C2B10D8DFE8B0
:1004000003F02A0F0F260B070F0B0F0F0F0F0B0018
:100410000A6D936801339360D1E9003213605A602A
:1004200010B400224FF0FF340B6C88680C6581F823
:100430004C201B689A688242FBD25A680020C1E9AE
:1004400000321160596080F3118810BC70470B6D49
:1004500000221A60E4E7002383F31188704700BF8D
:10046000164B30B403F11004D96144601C698260FA
:10047000022A046038BF0222606018614FF0804099
:100480008C184463002404610224C460456AA5EB0F
:10049000010C624503D930BC70472946154601342A
:1004A00021444163426A511BA142F6D2022CF2D987
:1004B0005A6B42F0010230BC5A63704700090020B9
:1004C000704700BF000000000000000000000000B6
:1004D000704700BF000000000000000000000000A6
:1004E000FEE700BF00000000000000000000000068
:1004F000F8B5154D154F16491648174A05F1700401
:1005000081420DD9043A034652F8046F43F8046B54
:100510009942F9D84B1E1B1A23F0030304331844E5
:10052000874207D97A1E121A22F0030204320021F0
:1005300001F016F8A54205D0D5E90420D5E9061743
:100540001035DDE7F8BD00BF50160008F80A00209E
:10055000F80A0020F80A0020D01600080000000069
:10056000194A536903F00103536143B370B5174C43
:10057000A3680BB1E0689847302383F311882168A2
:10058000A14214D000260B4609681A6C9D682160B0
:100590004C601E6583F84C6012689068A842FBD2DC
:1005A0005068A142C3E9002003605360EBD10023EF
:1005B00083F31188064B4FF080525A6070BD044B94
:1005C0004FF080525A60704700040140000800203C
:1005D00000ED00E00000000000000000000000004E
:1005E000174AF8B5536903F0020353611BB3154F63
:1005F000BB690BB1F8699847302383F31188124C1B
:100600003969A14214D000260B4609689D681A6C0E
:1006100039614C601E6583F84C6012689068A8428E
:10062000FBD25068A142C3E9002003605360EBD1C4
:10063000002383F31188054B4FF080525A60F8BDB8
:1006400000040140000800201008002000ED00E038
:10065000174AF8B5536903F0040353611BB3154FF0
:10066000BB6A0BB1F86A9847302383F31188124CA8
:10067000396AA14214D000260B4609689D681A6C9D
:1006800039624C601E6583F84C6012689068A8421D
:10069000FBD25068A142C3E9002003605360EBD154
:1006A000002383F31188054B4FF080525A60F8BD48
:1006B00000040140000800202008002000ED00E0B8
:1006C000174AF8B5536903F0080353611BB3154F7C
:1006D000BB6B0BB1F86B9847302383F31188124C36
:1006E000396BA14214D000260B4609689D681A6C2C
:1006F00039634C601E6583F84C6012689068A842AC
:10070000FBD25068A142C3E9002003605360EBD1E3
:10071000002383F31188054B4FF080525A60F8BDD7
:1007200000040140000800203008002000ED00E037
:10073000174AF8B5536903F0100353611BB3154F03
:10074000BB6C0BB1F86C9847302383F31188124CC3
:10075000396CA14214D000260B4609681A6C9D68BA
:1007600039644C601E6583F84C6012689068A8423A
:10077000FBD25068A142C3E9002003605360EBD173
:10078000002383F31188054B4FF080525A60F8BD67
:1007900000040140000800204008002000ED00E0B7
:1007A000F8B56C4B5D6905F47872AC065A6125D5D5
:1007B000694CA36D0BB1E06D9847302383F311882A
:1007C000664E216DB14216D04FF0000C0B46096801
:1007D0001A6C9F6821654E60C3F850C083F84CC006
:1007E00012689068B842FBD25068B142C3E9002059
:1007F00003605360EAD1002383F31188680625D58E
:10080000554CA36E0BB1E06E9847302383F31188EB
:10081000534E216EB14216D04FF0000C0B460968C2
:100820001A6C9F6821664E60C3F850C083F84CC0B4
:1008300012689068B842FBD25068B142C3E9002008
:1008400003605360EAD1002383F31188290625D57C
:10085000414CA36F0BB1E06F9847302383F31188AD
:10086000404E216FB14216D04FF0000C0B46096884
:100870001A6C9F6821674E60C3F850C083F84CC063
:1008800012689068B842FBD25068B142C3E90020B8
:1008900003605360EAD1002383F31188EA0529D568
:1008A0002D4CD4F8883013B1D4F88C0098473023FD
:1008B00083F311882C4ED4F88010B14217D04FF03A
:1008C000000C0B4609681A6C9F68C4F880104E60D3
:1008D000C3F850C083F84CC012689068B842FBD28D
:1008E0005068B142C3E9002003605360E9D100239E
:1008F00083F31188AB0527D5174CD4F8983013B182
:10090000D4F89C009847302383F31188174DD4F80E
:100910009010A94215D000270B4609681A6C9E68F2
:10092000C4F890104D601F6583F84C701268906891
:10093000B042FBD25068A942C3E900200360536073
:10094000EAD1002383F31188094B4FF080525A609B
:10095000F8BD00BF0004014000080020500800203E
:100960006008002070080020800800209008002007
:1009700000ED00E0000000000000000000000000AA
:10098000F8B5884B5D6905F47C426E055A6129D53E
:10099000854CD4F8A83013B1D4F8AC009847302374
:1009A00083F31188814ED4F8A010B14217D04FF0D4
:1009B000000C0B4609681A6C9F68C4F8A0104E60C2
:1009C000C3F850C083F84CC012689068B842FBD29C
:1009D0005068B142C3E9002003605360E9D10023AD
:1009E00083F311882C0529D56F4CD4F8B83013B196
:1009F000D4F8BC009847302383F311886C4ED4F8A8
:100A0000B010B14217D04FF0000C0B4609681A6CB9
:100A10009F68C4F8B0104E60C3F850C083F84CC053
:100A200012689068B842FBD25068B142C3E9002016
:100A300003605360E9D1002383F31188E80429D5CA
:100A4000594CD4F8C83013B1D4F8CC0098473023AF
:100A500083F31188574ED4F8C010B14217D04FF02D
:100A6000000C0B4609681A6C9F68C4F8C0104E60F1
:100A7000C3F850C083F84CC012689068B842FBD2EB
:100A80005068B142C3E9002003605360E9D10023FC
:100A900083F31188A90429D5434CD4F8D83013B175
:100AA000D4F8DC009847302383F31188424ED4F801
:100AB000D010B14217D04FF0000C0B4609681A6CE9
:100AC0009F68C4F8D0104E60C3F850C083F84CC083
:100AD00012689068B842FBD25068B142C3E9002066
:100AE00003605360E9D1002383F311886A0429D598
:100AF0002D4CD4F8E83013B1D4F8EC0098473023EB
:100B000083F311882D4ED4F8E010B14217D04FF086
:100B1000000C0B4609681A6C9F68C4F8E0104E6020
:100B2000C3F850C083F84CC012689068B842FBD23A
:100B30005068B142C3E9002003605360E9D100234B
:100B400083F311882B0427D5174CD4F8F83013B150
:100B5000D4F8FC009847302383F31188184DD4F85B
:100B6000F010A94215D000270B4609681A6C9E6840
:100B7000C4F8F0104D601F6583F84C7012689068DF
:100B8000B042FBD25068A942C3E900200360536021
:100B9000EAD1002383F311880A4B4FF080525A6048
:100BA000F8BD00BF0004014000080020A00800209C
:100BB000B0080020C0080020D0080020E008002075
:100BC000F008002000ED00E0000000000000000040
:100BD0002DE9F0474FF080463369F2681340DAB2EE
:100BE000D2439B07326105D4444B4FF080525A6088
:100BF000BDE8F087302383F31188414D4FF00009A1
:100C000005F110074FF030082C69EB69716AA26892
:100C1000C81A904203EB020A34D3D4E90032C5F873
:100C20001CA013605A60C4F800902B69BB4208BF37
:100C3000C6F80C9089F31188D4E90331204698470F
:100C400088F311886369002BDED0716AA1EB0A007A
:100C500083422FD32A69BA4246D091688B4204D985
:100C600012685B1A91689942FAD3A3609168226076
:100C7000CB1A516861600C60C2E901434FF0FF3349
:100C8000AB61BFE7BC420CD013445B1A022BE96195
:100C9000A36038BF0223CA187263726A511A8B426A
:100CA00011D9002383F31188144B4FF080525A60FE
:100CB000BDE8F0876B6B2A6943F00203BA426B63AD
:100CC00018D00346C9E702234FF080410133D01802
:100CD0004863486A821A9A420ED2022BE1D96B6BA2
:100CE00043F001036B63DCE753445A1A2046FFF7D5
:100CF000B7FBD6E70022F9E70246E7E700ED00E0A0
:100D000000090020000000000000000000000000BA
:100D1000984A9948D36A43F07F0330B4D362D46AC7
:100D200024F07F04D462D46AD46C44F07F04D46489
:100D3000D46E4FF0904144F07F040023D4668F4C72
:100D4000D56E4B608C604FF01054CC604FF44C4427
:100D50004B610C628A4C4B620C60C02443606FF0A4
:100D6000406584606FF04004C36001F50061436139
:100D7000036243620460834C4B604FF0FF308B6032
:100D8000CB604B610B624B620D60636001F50061EB
:100D9000A360E36063612362636220604B608B60E9
:100DA000CB604B610B624B620860C4F80438C4F836
:100DB0000838C4F80C38C4F81438C4F82038C4F81B
:100DC0002438C4F80008C1F80438C1F80838C1F85C
:100DD0000C38C1F81438C1F82038C1F82438C1F8EB
:100DE0000008916A9062916A9362916AD46A664936
:100DF00064F07F04D462D46A04F07F04D462D46ABD
:100E0000146B1063146B1363146B946B9063946B8B
:100E10009363946BD46BD063D46BD363D46B146C37
:100E20001064106C1364106C106E40F001001066BA
:100E3000D2F8800020F00100C2F88000D2F88000D3
:100E4000906D40F080509065906F20F080509067DA
:100E50004FF40044906F8C60CB600B624B628B62EE
:100E6000CB620B634B638B63CB630B644B648B6410
:100E7000CB640B654B65086840F480700860D2F85D
:100E8000901001F44071B1F5807F05D04FF48031AE
:100E9000C2F89010C2F89030364AD2F8903043F041
:100EA0001903C2F89030D2F890309B07FBD5374B2E
:100EB00035494FF4806494600020C2F888304FF4C4
:100EC0000073C2F89C000B604B6913F4C06FFBD138
:100ED000284A936803F00C03042B61D1254B1A6850
:100EE00042F480321A601A689003FCD5D3F8981047
:100EF000204A41F00101C3F89810D2F898309907C0
:100F0000FBD52349234B1B48D160136003689A012A
:100F1000FCD58368204A214903F0030343F480632E
:100F20008360116013684B4013F00F03FAD1164A27
:100F30004FF440704FF4807110605360C2F880101D
:100F400053699B05FCD40B4A936843F0030341F2B9
:100F50000C01936093684B4013F00C0FFAD1D2F858
:100F6000903023F0032343F4807330BCC2F89030F8
:100F7000704700BF0010024000040048000C003C15
:100F8000AFF7FFEB000C0048007000405501005027
:100F900053556101000301010020024004070400D1
:100FA000136843F48073136013685D05FCD5012357
:100FB0000D4993608B6803F00C03042BFAD10B4AA4
:100FC0000B4B1360136813F00F03FBD1064A632128
:100FD000C2F89830116013689C03FCD4054B4FF4A1
:100FE0008072C3F8802079E70010024000200240A0
:100FF0000006040000700040000000000000000037
:1010000070B5302383F311881D4BD9684A6D08658C
:1010100001F1540C944518BF4FF0000E11D191F816
:101020004E201AB318680F2281F84C2002681A600B
:101030004FF0010C536080F84CC0D86000DF70BDE9
:1010400022461468106C96684C6582F84CE0006883
:101050008568B542FBD245681060644555602A60DA
:101060004260EDD191F84E20002ADBD191F84D205D
:101070009207D7D1D1E90E2002605060D2E700BFBD
:101080000009002000000000000000000000000037
:1010900010B4302383F31188114AD368106899681B
:1010A00084688C4216D9046814606260012480F858
:1010B0004C40D06000241A6C83F84C40126894684D
:1010C000A142FBD3516810BCC3E900210B60194653
:1010D00053607047002080F31188014610BC7047B0
:1010E00000090020000000000000000000000000D7
:1010F0002DE980484FF0E02389B05C6800224FF072
:10110000FF30930003F1604303F561439442C3F859
:10111000800002F10102C3F88001F2D1B44A6023D9
:101120004024802082F806334FF48071C2F8804159
:10113000146082F807334FF40074C2F88001106025
:101140004FF4806082F80833C2F88011116082F891
:101150000933C2F88041146082F80A33C2F8800172
:1011600010604FF4000082F81733C2F8800110605D
:1011700082F828339F4BC2F884114FF080507024BE
:10118000516082F81C435918C2F880011060002297
:10119000C3E90033C3E9022210338B42F8D19649E8
:1011A000964D886DDFF858A240F001008865886F81
:1011B00040F001008867896FA8684FF080430121E3
:1011C00008434FF0FF3444F26726A8609E62002077
:1011D000DC629A615A63DA605A60596119608AF870
:1011E00000100021CDE90601CDE90242CDE904223B
:1011F000CAF80420CAF80820042502AE3046FFF7DA
:1012000097F8FFF79DF8013DF8D17E4B029ACAF896
:1012100008207D4A1A607D4A5A607D4A7D4B1360E2
:1012200002F10C03C2E903337B4B5561C2E901555E
:101230007A4A7B4C1A629A630422DA615A63794AC9
:10124000A26303F110021A6114229A6103F12402CD
:101250005A6203F128029A621C221A6303F13C02CB
:10126000DA6303F140021A6403F14402C3E9003374
:101270009D605D61DD62CAF8044025635A644FF0E9
:10128000300989F3118862B6C4E92755664BA56019
:101290006563E561D968E4674FF6FF021140634A70
:1012A000C4F884500A43DA60D3F8FC20604942F065
:1012B0008072C3F8FC200A6842F001020A60202014
:1012C000F0224FF08047D87783F822207B6A019381
:1012D00080236364C4F8A43004F12803A36704F1F5
:1012E0009403C4E92533534BC4F880304FF0FF33E7
:1012F00004F17402A36104F19003A262C4F8903077
:10130000019A4D4904F13C030120E36004F1100807
:101310002B46C4E90488A4F8880084F88A00C4E94C
:1013200008234FF002038AF8003001F1400AC1F8A7
:101330006CA0DFF808A1C1F874A06FF0020AC1F830
:1013400094A0DFF8FCA0C1F858A004F128034FF0E6
:10135000807A01F1980B01F1B80E01F1600CC1F82F
:101360005CA0C1F89830DFF8DCA0C4F8AC5004F100
:10137000740201F1B403C1F8A810C1F8A4A0C1F827
:101380009C20C1F8B430C1F870908D678866C1F8B0
:10139000A040C1F8C80081F8AE00C1E93055C4F8DA
:1013A00074B0C4F82CB0C1E92EEEA1F8AC50C1E97C
:1013B0001844C4E900CC85F31188DFF88CA089F3C8
:1013C00011882269E16807954245786ACDE905A14F
:1013D00000F0B780E369D2F808E042F2107CC31A4B
:1013E00013EB0C0328BF63469E4534D960E000BF71
:1013F00000E100E00008002000100240002004E0AE
:10140000D00A0020C80A0020F80A002000000220AC
:10141000DC0A002091030008800A0020D1030008A4
:10142000000900201016000800ED00E00003FA0596
:10143000001000E024160008B00900202103000875
:101440000D03000804160008F10300081268A3EB5E
:101450000E03D2F808E09E45F8D30493D2E901C008
:10146000C31A4FF0FF30CDE9022CCCF80060C2E97E
:101470000163A0612068082381F84C300368236071
:1014800001225C6080F84C20E06000DF029B63B1C9
:101490002269B2422BD0DDE903109A680B60024446
:1014A0004FF0FF30C3E90112A06185F3118886E790
:1014B0008444C7F834C0D7F824C042F20F7BACEBA9
:1014C0000000584588BF0220C5D9013000EB0C0B45
:1014D000C7F834B0D7F824B0ABEB0C0C84453AD243
:1014E0000228B8D9606B40F001006063B3E7434560
:1014F0002361C3F8048002952BD099680498E269AF
:1015000001449960786A831A9942CED9131A0B4420
:10151000022B38BF0223C2187A637A6A101A8342F8
:1015200098BF0223C1D80133D1187963796A8A1A26
:101530009A4212D2022BB8D9636B43F00103636362
:10154000B3E7014642F210723046FEF789FFE168C8
:1015500090E7FD60A9E7DC46B7E70A46E3E700BF8E
:10156000830730B548D0541E002A3FD0CAB2034684
:1015700001E0013C3AD303F8012B9D07F9D1032C7C
:101580002DD9CDB245EA05250F2C45EA054536D9BA
:10159000A4F1100222F00F0C03F1200EE6444FEAF2
:1015A000121C03F1100242E9045542E902551032BF
:1015B0007245F8D10CF1010214F00C0F03EB02128A
:1015C00004F00F0C13D0ACF1040323F00303043335
:1015D000134442F8045B9342FBD10CF003042CB19A
:1015E000CAB21C4403F8012B9C42FBD130BD6446B7
:1015F0001346002CF4D1F9E703461446BFE71A4618
:04160000A446E0E735
:1016040069646C6500000000633000000C1600087B
:101614000000000000000000B0090020800A002043
:101624006D61696E002C0438040470080C383C4465
:10163400484C4D4E00000000000028040100040046
:1016440000000000000C001028303400D016000800
:10165400F80A0020F80A0020F80A0020D016000832
:10166400000000200000002000000020D016000828
:10167400000000200000002000000020D016000818
:10168400004001200040012000400120D016000845
:10169400008001200080012000800120D016000875
:1016A400000000100000001000000010D016000818
:1016B400000000000000000000000000D016000838
:0C16C4000000000000000000000000001A
:04000005080002B934
:00000001FF
